{
	"contracts/FundMe_flattened.sol": {
		"FundMe": {
			"abi": [
				{
					"inputs": [],
					"stateMutability": "nonpayable",
					"type": "constructor"
				},
				{
					"inputs": [],
					"name": "NotOwner",
					"type": "error"
				},
				{
					"stateMutability": "payable",
					"type": "fallback"
				},
				{
					"inputs": [],
					"name": "FUND",
					"outputs": [],
					"stateMutability": "payable",
					"type": "function"
				},
				{
					"inputs": [],
					"name": "MINI_USD",
					"outputs": [
						{
							"internalType": "uint256",
							"name": "",
							"type": "uint256"
						}
					],
					"stateMutability": "view",
					"type": "function"
				},
				{
					"inputs": [],
					"name": "WITHDRAW",
					"outputs": [],
					"stateMutability": "nonpayable",
					"type": "function"
				},
				{
					"inputs": [
						{
							"internalType": "address",
							"name": "funder",
							"type": "address"
						}
					],
					"name": "addressToAmountFunded",
					"outputs": [
						{
							"internalType": "uint256",
							"name": "amountFunded",
							"type": "uint256"
						}
					],
					"stateMutability": "view",
					"type": "function"
				},
				{
					"inputs": [
						{
							"internalType": "uint256",
							"name": "",
							"type": "uint256"
						}
					],
					"name": "funders",
					"outputs": [
						{
							"internalType": "address",
							"name": "",
							"type": "address"
						}
					],
					"stateMutability": "view",
					"type": "function"
				},
				{
					"inputs": [],
					"name": "i_owner",
					"outputs": [
						{
							"internalType": "address",
							"name": "",
							"type": "address"
						}
					],
					"stateMutability": "view",
					"type": "function"
				},
				{
					"stateMutability": "payable",
					"type": "receive"
				}
			],
			"devdoc": {
				"kind": "dev",
				"methods": {},
				"version": 1
			},
			"evm": {
				"assembly": "    /* \"contracts/FundMe_flattened.sol\":1712:3372  contract FundMe {... */\n  mstore(0x40, 0xa0)\n    /* \"contracts/FundMe_flattened.sol\":1984:2037  constructor() {... */\n  callvalue\n  dup1\n  iszero\n  tag_1\n  jumpi\n  revert(0x00, 0x00)\ntag_1:\n  pop\n    /* \"contracts/FundMe_flattened.sol\":2019:2029  msg.sender */\n  caller\n    /* \"contracts/FundMe_flattened.sol\":2009:2029  i_owner = msg.sender */\n  0x80\n  mstore\n    /* \"contracts/FundMe_flattened.sol\":1712:3372  contract FundMe {... */\n  mload(0x80)\n  codecopy(0x00, dataOffset(sub_0), dataSize(sub_0))\n  0x00\n  assignImmutable(\"0xa413d075ec804ca282f1637fedbe82ecda1992097d14e4d900d254e0f5fe523d\")\n  return(0x00, dataSize(sub_0))\nstop\n\nsub_0: assembly {\n        /* \"contracts/FundMe_flattened.sol\":1712:3372  contract FundMe {... */\n      mstore(0x40, 0x80)\n      jumpi(tag_1, lt(calldatasize, 0x04))\n      shr(0xe0, calldataload(0x00))\n      dup1\n      0x16ba7197\n      eq\n      tag_3\n      jumpi\n      dup1\n      0x3e47d6f3\n      eq\n      tag_4\n      jumpi\n      dup1\n      0x5c275a39\n      eq\n      tag_2\n      jumpi\n      dup1\n      0x6bb3da7a\n      eq\n      tag_6\n      jumpi\n      dup1\n      0xdba6335f\n      eq\n      tag_7\n      jumpi\n      dup1\n      0xdc0d3dff\n      eq\n      tag_8\n      jumpi\n      jump(tag_2)\n    tag_1:\n      jumpi(tag_2, calldatasize)\n        /* \"contracts/FundMe_flattened.sol\":3301:3307  FUND() */\n      tag_11\n        /* \"contracts/FundMe_flattened.sol\":3301:3305  FUND */\n      tag_12\n        /* \"contracts/FundMe_flattened.sol\":3301:3307  FUND() */\n      jump\t// in\n    tag_11:\n        /* \"contracts/FundMe_flattened.sol\":1712:3372  contract FundMe {... */\n      stop\n    tag_2:\n        /* \"contracts/FundMe_flattened.sol\":3356:3362  FUND() */\n      tag_11\n        /* \"contracts/FundMe_flattened.sol\":3356:3360  FUND */\n      tag_12\n        /* \"contracts/FundMe_flattened.sol\":3356:3362  FUND() */\n      jump\t// in\n        /* \"contracts/FundMe_flattened.sol\":2368:3006  function WITHDRAW()public onlyOwner{... */\n    tag_3:\n      callvalue\n      dup1\n      iszero\n      tag_16\n      jumpi\n      revert(0x00, 0x00)\n    tag_16:\n      pop\n      tag_11\n      tag_18\n      jump\t// in\n        /* \"contracts/FundMe_flattened.sol\":1858:1934  mapping(address funder => uint256 amountFunded) public addressToAmountFunded */\n    tag_4:\n      callvalue\n      dup1\n      iszero\n      tag_19\n      jumpi\n      revert(0x00, 0x00)\n    tag_19:\n      pop\n      tag_20\n      tag_21\n      calldatasize\n      0x04\n      tag_22\n      jump\t// in\n    tag_21:\n      mstore(0x20, 0x01)\n      0x00\n      swap1\n      dup2\n      mstore\n      0x40\n      swap1\n      keccak256\n      sload\n      dup2\n      jump\n    tag_20:\n      mload(0x40)\n        /* \"#utility.yul\":451:476   */\n      swap1\n      dup2\n      mstore\n        /* \"#utility.yul\":439:441   */\n      0x20\n        /* \"#utility.yul\":424:442   */\n      add\n        /* \"contracts/FundMe_flattened.sol\":1858:1934  mapping(address funder => uint256 amountFunded) public addressToAmountFunded */\n    tag_24:\n      mload(0x40)\n      dup1\n      swap2\n      sub\n      swap1\n      return\n        /* \"contracts/FundMe_flattened.sol\":1778:1817  uint256 public constant MINI_USD = 1e18 */\n    tag_6:\n      callvalue\n      dup1\n      iszero\n      tag_27\n      jumpi\n      revert(0x00, 0x00)\n    tag_27:\n      pop\n      tag_20\n        /* \"contracts/FundMe_flattened.sol\":1813:1817  1e18 */\n      0x0de0b6b3a7640000\n        /* \"contracts/FundMe_flattened.sol\":1778:1817  uint256 public constant MINI_USD = 1e18 */\n      dup2\n      jump\n        /* \"contracts/FundMe_flattened.sol\":1943:1975  address public immutable i_owner */\n    tag_7:\n      callvalue\n      dup1\n      iszero\n      tag_31\n      jumpi\n      revert(0x00, 0x00)\n    tag_31:\n      pop\n      tag_32\n      immutable(\"0xa413d075ec804ca282f1637fedbe82ecda1992097d14e4d900d254e0f5fe523d\")\n      dup2\n      jump\n    tag_32:\n      mload(0x40)\n      sub(shl(0xa0, 0x01), 0x01)\n        /* \"#utility.yul\":651:683   */\n      swap1\n      swap2\n      and\n        /* \"#utility.yul\":633:684   */\n      dup2\n      mstore\n        /* \"#utility.yul\":621:623   */\n      0x20\n        /* \"#utility.yul\":606:624   */\n      add\n        /* \"contracts/FundMe_flattened.sol\":1943:1975  address public immutable i_owner */\n      tag_24\n        /* \"#utility.yul\":487:690   */\n      jump\n        /* \"contracts/FundMe_flattened.sol\":1827:1851  address[] public funders */\n    tag_8:\n      callvalue\n      dup1\n      iszero\n      tag_36\n      jumpi\n      revert(0x00, 0x00)\n    tag_36:\n      pop\n      tag_32\n      tag_38\n      calldatasize\n      0x04\n      tag_39\n      jump\t// in\n    tag_38:\n      tag_40\n      jump\t// in\n        /* \"contracts/FundMe_flattened.sol\":2047:2360  function FUND() public payable {... */\n    tag_12:\n        /* \"contracts/FundMe_flattened.sol\":1813:1817  1e18 */\n      0x0de0b6b3a7640000\n        /* \"contracts/FundMe_flattened.sol\":2097:2126  msg.value.GetConversionRate() */\n      tag_43\n        /* \"contracts/FundMe_flattened.sol\":2097:2106  msg.value */\n      callvalue\n        /* \"contracts/FundMe_flattened.sol\":2097:2124  msg.value.GetConversionRate */\n      tag_44\n        /* \"contracts/FundMe_flattened.sol\":2097:2126  msg.value.GetConversionRate() */\n      jump\t// in\n    tag_43:\n        /* \"contracts/FundMe_flattened.sol\":2097:2138  msg.value.GetConversionRate() >= MINI_USD */\n      lt\n      iszero\n        /* \"contracts/FundMe_flattened.sol\":2089:2165  require(msg.value.GetConversionRate() >= MINI_USD, \"Didn't send enough ETH\") */\n      tag_45\n      jumpi\n      mload(0x40)\n      shl(0xe5, 0x461bcd)\n      dup2\n      mstore\n        /* \"#utility.yul\":1082:1084   */\n      0x20\n        /* \"contracts/FundMe_flattened.sol\":2089:2165  require(msg.value.GetConversionRate() >= MINI_USD, \"Didn't send enough ETH\") */\n      0x04\n      dup3\n      add\n        /* \"#utility.yul\":1064:1085   */\n      mstore\n        /* \"#utility.yul\":1121:1123   */\n      0x16\n        /* \"#utility.yul\":1101:1119   */\n      0x24\n      dup3\n      add\n        /* \"#utility.yul\":1094:1124   */\n      mstore\n      shl(0x53, 0x088d2c8dc4ee840e6cadcc840cadcdeeaced0408aa89)\n        /* \"#utility.yul\":1140:1158   */\n      0x44\n      dup3\n      add\n        /* \"#utility.yul\":1133:1185   */\n      mstore\n        /* \"#utility.yul\":1202:1220   */\n      0x64\n      add\n        /* \"contracts/FundMe_flattened.sol\":2089:2165  require(msg.value.GetConversionRate() >= MINI_USD, \"Didn't send enough ETH\") */\n    tag_46:\n      mload(0x40)\n      dup1\n      swap2\n      sub\n      swap1\n      revert\n    tag_45:\n        /* \"contracts/FundMe_flattened.sol\":2226:2233  funders */\n      0x00\n        /* \"contracts/FundMe_flattened.sol\":2226:2250  funders.push(msg.sender) */\n      dup1\n      sload\n      0x01\n      dup2\n      dup2\n      add\n      dup4\n      sstore\n      0x290decd9548b62a8d60345a988386fc84ba6bc95484008f6362f93160ef3e563\n      swap1\n      swap2\n      add\n      dup1\n      sload\n      not(sub(shl(0xa0, 0x01), 0x01))\n      and\n        /* \"contracts/FundMe_flattened.sol\":2239:2249  msg.sender */\n      caller\n        /* \"contracts/FundMe_flattened.sol\":2226:2250  funders.push(msg.sender) */\n      swap1\n      dup2\n      or\n      swap1\n      swap2\n      sstore\n        /* \"contracts/FundMe_flattened.sol\":2297:2330  addressToAmountFunded[msg.sender] */\n      dup3\n      mstore\n        /* \"contracts/FundMe_flattened.sol\":2226:2250  funders.push(msg.sender) */\n      0x20\n        /* \"contracts/FundMe_flattened.sol\":2297:2330  addressToAmountFunded[msg.sender] */\n      mstore\n      0x40\n      swap1\n      keccak256\n      sload\n        /* \"contracts/FundMe_flattened.sol\":2297:2342  addressToAmountFunded[msg.sender] + msg.value */\n      tag_49\n      swap1\n        /* \"contracts/FundMe_flattened.sol\":2333:2342  msg.value */\n      callvalue\n      swap1\n        /* \"contracts/FundMe_flattened.sol\":2297:2342  addressToAmountFunded[msg.sender] + msg.value */\n      tag_50\n      jump\t// in\n    tag_49:\n        /* \"contracts/FundMe_flattened.sol\":2283:2293  msg.sender */\n      caller\n        /* \"contracts/FundMe_flattened.sol\":2261:2294  addressToAmountFunded[msg.sender] */\n      0x00\n      swap1\n      dup2\n      mstore\n        /* \"contracts/FundMe_flattened.sol\":2261:2282  addressToAmountFunded */\n      0x01\n        /* \"contracts/FundMe_flattened.sol\":2261:2294  addressToAmountFunded[msg.sender] */\n      0x20\n      mstore\n      0x40\n      swap1\n      keccak256\n        /* \"contracts/FundMe_flattened.sol\":2261:2342  addressToAmountFunded[msg.sender] = addressToAmountFunded[msg.sender] + msg.value */\n      sstore\n        /* \"contracts/FundMe_flattened.sol\":2047:2360  function FUND() public payable {... */\n      jump\t// out\n        /* \"contracts/FundMe_flattened.sol\":2368:3006  function WITHDRAW()public onlyOwner{... */\n    tag_18:\n        /* \"contracts/FundMe_flattened.sol\":3116:3126  msg.sender */\n      caller\n      sub(shl(0xa0, 0x01), 0x01)\n        /* \"contracts/FundMe_flattened.sol\":3130:3137  i_owner */\n      immutable(\"0xa413d075ec804ca282f1637fedbe82ecda1992097d14e4d900d254e0f5fe523d\")\n        /* \"contracts/FundMe_flattened.sol\":3116:3137  msg.sender != i_owner */\n      and\n      eq\n        /* \"contracts/FundMe_flattened.sol\":3112:3160  if (msg.sender != i_owner){ revert NotOwner(); } */\n      tag_52\n      jumpi\n        /* \"contracts/FundMe_flattened.sol\":3147:3157  NotOwner() */\n      mload(0x40)\n      shl(0xe0, 0x30cd7471)\n      dup2\n      mstore\n      0x04\n      add\n      mload(0x40)\n      dup1\n      swap2\n      sub\n      swap1\n      revert\n        /* \"contracts/FundMe_flattened.sol\":3112:3160  if (msg.sender != i_owner){ revert NotOwner(); } */\n    tag_52:\n        /* \"contracts/FundMe_flattened.sol\":2422:2432  msg.sender */\n      caller\n      sub(shl(0xa0, 0x01), 0x01)\n        /* \"contracts/FundMe_flattened.sol\":2436:2443  i_owner */\n      immutable(\"0xa413d075ec804ca282f1637fedbe82ecda1992097d14e4d900d254e0f5fe523d\")\n        /* \"contracts/FundMe_flattened.sol\":2422:2443  msg.sender == i_owner */\n      and\n      eq\n        /* \"contracts/FundMe_flattened.sol\":2414:2466  require(msg.sender == i_owner, \"Must be OWNER !!!!\") */\n      tag_54\n      jumpi\n      mload(0x40)\n      shl(0xe5, 0x461bcd)\n      dup2\n      mstore\n        /* \"#utility.yul\":1695:1697   */\n      0x20\n        /* \"contracts/FundMe_flattened.sol\":2414:2466  require(msg.sender == i_owner, \"Must be OWNER !!!!\") */\n      0x04\n      dup3\n      add\n        /* \"#utility.yul\":1677:1698   */\n      mstore\n        /* \"#utility.yul\":1734:1736   */\n      0x12\n        /* \"#utility.yul\":1714:1732   */\n      0x24\n      dup3\n      add\n        /* \"#utility.yul\":1707:1737   */\n      mstore\n      shl(0x70, 0x4d757374206265204f574e45522021212121)\n        /* \"#utility.yul\":1753:1771   */\n      0x44\n      dup3\n      add\n        /* \"#utility.yul\":1746:1794   */\n      mstore\n        /* \"#utility.yul\":1811:1829   */\n      0x64\n      add\n        /* \"contracts/FundMe_flattened.sol\":2414:2466  require(msg.sender == i_owner, \"Must be OWNER !!!!\") */\n      tag_46\n        /* \"#utility.yul\":1493:1835   */\n      jump\n        /* \"contracts/FundMe_flattened.sol\":2414:2466  require(msg.sender == i_owner, \"Must be OWNER !!!!\") */\n    tag_54:\n        /* \"contracts/FundMe_flattened.sol\":2482:2501  uint256 funderIndex */\n      0x00\n        /* \"contracts/FundMe_flattened.sol\":2477:2727  for (uint256 funderIndex = 0; funderIndex < funders.length; funderIndex++){  // funderIndex++ is equal to say funderIndex = funderIndex + 1... */\n    tag_57:\n        /* \"contracts/FundMe_flattened.sol\":2521:2528  funders */\n      0x00\n        /* \"contracts/FundMe_flattened.sol\":2521:2535  funders.length */\n      sload\n        /* \"contracts/FundMe_flattened.sol\":2507:2535  funderIndex < funders.length */\n      dup2\n      lt\n        /* \"contracts/FundMe_flattened.sol\":2477:2727  for (uint256 funderIndex = 0; funderIndex < funders.length; funderIndex++){  // funderIndex++ is equal to say funderIndex = funderIndex + 1... */\n      iszero\n      tag_58\n      jumpi\n        /* \"contracts/FundMe_flattened.sol\":2630:2644  address funder */\n      0x00\n        /* \"contracts/FundMe_flattened.sol\":2647:2654  funders */\n      0x00\n        /* \"contracts/FundMe_flattened.sol\":2655:2666  funderIndex */\n      dup3\n        /* \"contracts/FundMe_flattened.sol\":2647:2667  funders[funderIndex] */\n      dup2\n      sload\n      dup2\n      lt\n      tag_61\n      jumpi\n      tag_61\n      tag_62\n      jump\t// in\n    tag_61:\n      0x00\n      swap2\n      dup3\n      mstore\n      0x20\n      dup1\n      dup4\n      keccak256\n      swap1\n      swap2\n      add\n      sload\n      sub(shl(0xa0, 0x01), 0x01)\n      and\n        /* \"contracts/FundMe_flattened.sol\":2682:2711  addressToAmountFunded[funder] */\n      dup3\n      mstore\n        /* \"contracts/FundMe_flattened.sol\":2647:2667  funders[funderIndex] */\n      0x01\n        /* \"contracts/FundMe_flattened.sol\":2682:2711  addressToAmountFunded[funder] */\n      swap1\n      dup2\n      swap1\n      mstore\n      0x40\n      dup3\n      keccak256\n        /* \"contracts/FundMe_flattened.sol\":2682:2715  addressToAmountFunded[funder] = 0 */\n      swap2\n      swap1\n      swap2\n      sstore\n        /* \"contracts/FundMe_flattened.sol\":2537:2550  funderIndex++ */\n      swap2\n      swap1\n      swap2\n      add\n      swap1\n      pop\n        /* \"contracts/FundMe_flattened.sol\":2477:2727  for (uint256 funderIndex = 0; funderIndex < funders.length; funderIndex++){  // funderIndex++ is equal to say funderIndex = funderIndex + 1... */\n      jump(tag_57)\n    tag_58:\n      pop\n        /* \"contracts/FundMe_flattened.sol\":2774:2790  new address[](0) */\n      0x40\n      dup1\n      mload\n        /* \"contracts/FundMe_flattened.sol\":2788:2789  0 */\n      0x00\n        /* \"contracts/FundMe_flattened.sol\":2774:2790  new address[](0) */\n      dup1\n      dup3\n      mstore\n      0x20\n      dup3\n      add\n      swap3\n      dup4\n      swap1\n      mstore\n        /* \"contracts/FundMe_flattened.sol\":2764:2790  funders = new address[](0) */\n      swap1\n      mload\n      tag_68\n      swap3\n        /* \"contracts/FundMe_flattened.sol\":2774:2790  new address[](0) */\n      swap1\n        /* \"contracts/FundMe_flattened.sol\":2764:2790  funders = new address[](0) */\n      tag_69\n      jump\t// in\n    tag_68:\n      pop\n        /* \"contracts/FundMe_flattened.sol\":2883:2941  payable(msg.sender).call{value: address(this).balance}(\"\") */\n      mload(0x40)\n        /* \"contracts/FundMe_flattened.sol\":2861:2877  bool callSuccess */\n      0x00\n      swap1\n        /* \"contracts/FundMe_flattened.sol\":2891:2901  msg.sender */\n      caller\n      swap1\n        /* \"contracts/FundMe_flattened.sol\":2915:2936  address(this).balance */\n      selfbalance\n      swap1\n        /* \"contracts/FundMe_flattened.sol\":2861:2877  bool callSuccess */\n      dup4\n        /* \"contracts/FundMe_flattened.sol\":2883:2941  payable(msg.sender).call{value: address(this).balance}(\"\") */\n      dup2\n        /* \"contracts/FundMe_flattened.sol\":2861:2877  bool callSuccess */\n      dup2\n        /* \"contracts/FundMe_flattened.sol\":2883:2941  payable(msg.sender).call{value: address(this).balance}(\"\") */\n      dup2\n        /* \"contracts/FundMe_flattened.sol\":2915:2936  address(this).balance */\n      dup6\n        /* \"contracts/FundMe_flattened.sol\":2891:2901  msg.sender */\n      dup8\n        /* \"contracts/FundMe_flattened.sol\":2883:2941  payable(msg.sender).call{value: address(this).balance}(\"\") */\n      gas\n      call\n      swap3\n      pop\n      pop\n      pop\n      returndatasize\n      dup1\n      0x00\n      dup2\n      eq\n      tag_74\n      jumpi\n      mload(0x40)\n      swap2\n      pop\n      and(add(returndatasize, 0x3f), not(0x1f))\n      dup3\n      add\n      0x40\n      mstore\n      returndatasize\n      dup3\n      mstore\n      returndatasize\n      0x00\n      0x20\n      dup5\n      add\n      returndatacopy\n      jump(tag_73)\n    tag_74:\n      0x60\n      swap2\n      pop\n    tag_73:\n      pop\n        /* \"contracts/FundMe_flattened.sol\":2860:2941  (bool callSuccess, ) = payable(msg.sender).call{value: address(this).balance}(\"\") */\n      pop\n      swap1\n      pop\n        /* \"contracts/FundMe_flattened.sol\":2961:2972  callSuccess */\n      dup1\n        /* \"contracts/FundMe_flattened.sol\":2952:2991  require (callSuccess, \"Call FAILED ! \") */\n      tag_75\n      jumpi\n      mload(0x40)\n      shl(0xe5, 0x461bcd)\n      dup2\n      mstore\n        /* \"#utility.yul\":2516:2518   */\n      0x20\n        /* \"contracts/FundMe_flattened.sol\":2952:2991  require (callSuccess, \"Call FAILED ! \") */\n      0x04\n      dup3\n      add\n        /* \"#utility.yul\":2498:2519   */\n      mstore\n        /* \"#utility.yul\":2555:2557   */\n      0x0e\n        /* \"#utility.yul\":2535:2553   */\n      0x24\n      dup3\n      add\n        /* \"#utility.yul\":2528:2558   */\n      mstore\n      shl(0x95, 0x021b0b636102320a4a622a210109)\n        /* \"#utility.yul\":2574:2592   */\n      0x44\n      dup3\n      add\n        /* \"#utility.yul\":2567:2611   */\n      mstore\n        /* \"#utility.yul\":2628:2646   */\n      0x64\n      add\n        /* \"contracts/FundMe_flattened.sol\":2952:2991  require (callSuccess, \"Call FAILED ! \") */\n      tag_46\n        /* \"#utility.yul\":2314:2652   */\n      jump\n        /* \"contracts/FundMe_flattened.sol\":2952:2991  require (callSuccess, \"Call FAILED ! \") */\n    tag_75:\n        /* \"contracts/FundMe_flattened.sol\":2403:3006  {... */\n      pop\n        /* \"contracts/FundMe_flattened.sol\":2368:3006  function WITHDRAW()public onlyOwner{... */\n      jump\t// out\n        /* \"contracts/FundMe_flattened.sol\":1827:1851  address[] public funders */\n    tag_40:\n      0x00\n      dup2\n      dup2\n      sload\n      dup2\n      lt\n      tag_78\n      jumpi\n      0x00\n      dup1\n      revert\n    tag_78:\n      0x00\n      swap2\n      dup3\n      mstore\n      0x20\n      swap1\n      swap2\n      keccak256\n      add\n      sload\n      sub(shl(0xa0, 0x01), 0x01)\n      and\n      swap1\n      pop\n      dup2\n      jump\t// out\n        /* \"contracts/FundMe_flattened.sol\":1230:1455  function GetConversionRate(uint256 ethAmount) internal view returns (uint256) {... */\n    tag_44:\n        /* \"contracts/FundMe_flattened.sol\":1299:1306  uint256 */\n      0x00\n        /* \"contracts/FundMe_flattened.sol\":1319:1335  uint256 ethPrice */\n      0x00\n        /* \"contracts/FundMe_flattened.sol\":1338:1348  getPrice() */\n      tag_81\n        /* \"contracts/FundMe_flattened.sol\":1338:1346  getPrice */\n      tag_82\n        /* \"contracts/FundMe_flattened.sol\":1338:1348  getPrice() */\n      jump\t// in\n    tag_81:\n        /* \"contracts/FundMe_flattened.sol\":1319:1348  uint256 ethPrice = getPrice() */\n      swap1\n      pop\n        /* \"contracts/FundMe_flattened.sol\":1359:1381  uint256 ethAmountInUSD */\n      0x00\n        /* \"contracts/FundMe_flattened.sol\":1408:1412  1e18 */\n      0x0de0b6b3a7640000\n        /* \"contracts/FundMe_flattened.sol\":1384:1404  ethPrice * ethAmount */\n      tag_83\n        /* \"contracts/FundMe_flattened.sol\":1395:1404  ethAmount */\n      dup6\n        /* \"contracts/FundMe_flattened.sol\":1319:1348  uint256 ethPrice = getPrice() */\n      dup5\n        /* \"contracts/FundMe_flattened.sol\":1384:1404  ethPrice * ethAmount */\n      tag_84\n      jump\t// in\n    tag_83:\n        /* \"contracts/FundMe_flattened.sol\":1383:1412  (ethPrice * ethAmount) / 1e18 */\n      tag_85\n      swap2\n      swap1\n      tag_86\n      jump\t// in\n    tag_85:\n        /* \"contracts/FundMe_flattened.sol\":1359:1412  uint256 ethAmountInUSD= (ethPrice * ethAmount) / 1e18 */\n      swap5\n        /* \"contracts/FundMe_flattened.sol\":1230:1455  function GetConversionRate(uint256 ethAmount) internal view returns (uint256) {... */\n      swap4\n      pop\n      pop\n      pop\n      pop\n      jump\t// out\n        /* \"contracts/FundMe_flattened.sol\":860:1222  function getPrice() public view returns (uint256) {... */\n    tag_82:\n        /* \"contracts/FundMe_flattened.sol\":901:908  uint256 */\n      0x00\n        /* \"contracts/FundMe_flattened.sol\":921:952  AggregatorV3Interface priceFeed */\n      0x00\n        /* \"contracts/FundMe_flattened.sol\":977:1019  0x694AA1769357215DE4FAC081bf1f309aDC325306 */\n      0x694aa1769357215de4fac081bf1f309adc325306\n        /* \"contracts/FundMe_flattened.sol\":921:1020  AggregatorV3Interface priceFeed = AggregatorV3Interface(0x694AA1769357215DE4FAC081bf1f309aDC325306) */\n      swap1\n      pop\n        /* \"contracts/FundMe_flattened.sol\":1034:1046  int256 price */\n      0x00\n        /* \"contracts/FundMe_flattened.sol\":1056:1065  priceFeed */\n      dup2\n      sub(shl(0xa0, 0x01), 0x01)\n        /* \"contracts/FundMe_flattened.sol\":1056:1081  priceFeed.latestRoundData */\n      and\n      0xfeaf968c\n        /* \"contracts/FundMe_flattened.sol\":1056:1083  priceFeed.latestRoundData() */\n      mload(0x40)\n      dup2\n      0xffffffff\n      and\n      0xe0\n      shl\n      dup2\n      mstore\n      0x04\n      add\n      0xa0\n      mload(0x40)\n      dup1\n      dup4\n      sub\n      dup2\n      dup7\n      gas\n      staticcall\n      iszero\n      dup1\n      iszero\n      tag_89\n      jumpi\n      returndatacopy(0x00, 0x00, returndatasize)\n      revert(0x00, returndatasize)\n    tag_89:\n      pop\n      pop\n      pop\n      pop\n      mload(0x40)\n      returndatasize\n      not(0x1f)\n      0x1f\n      dup3\n      add\n      and\n      dup3\n      add\n      dup1\n      0x40\n      mstore\n      pop\n      dup2\n      add\n      swap1\n      tag_90\n      swap2\n      swap1\n      tag_91\n      jump\t// in\n    tag_90:\n        /* \"contracts/FundMe_flattened.sol\":1031:1083  (, int256 price, , , ) = priceFeed.latestRoundData() */\n      pop\n      pop\n      pop\n      swap2\n      pop\n      pop\n        /* \"contracts/FundMe_flattened.sol\":1139:1140  0 */\n      0x00\n        /* \"contracts/FundMe_flattened.sol\":1131:1136  price */\n      dup2\n        /* \"contracts/FundMe_flattened.sol\":1131:1140  price > 0 */\n      sgt\n        /* \"contracts/FundMe_flattened.sol\":1123:1177  require(price > 0, \"Price feed returned invalid data\") */\n      tag_92\n      jumpi\n      mload(0x40)\n      shl(0xe5, 0x461bcd)\n      dup2\n      mstore\n        /* \"#utility.yul\":4014:4016   */\n      0x20\n        /* \"contracts/FundMe_flattened.sol\":1123:1177  require(price > 0, \"Price feed returned invalid data\") */\n      0x04\n      dup3\n      add\n        /* \"#utility.yul\":3996:4017   */\n      dup2\n      swap1\n      mstore\n        /* \"#utility.yul\":4033:4051   */\n      0x24\n      dup3\n      add\n        /* \"#utility.yul\":4026:4056   */\n      mstore\n        /* \"#utility.yul\":4092:4126   */\n      0x507269636520666565642072657475726e656420696e76616c69642064617461\n        /* \"#utility.yul\":4072:4090   */\n      0x44\n      dup3\n      add\n        /* \"#utility.yul\":4065:4127   */\n      mstore\n        /* \"#utility.yul\":4144:4162   */\n      0x64\n      add\n        /* \"contracts/FundMe_flattened.sol\":1123:1177  require(price > 0, \"Price feed returned invalid data\") */\n      tag_46\n        /* \"#utility.yul\":3812:4168   */\n      jump\n        /* \"contracts/FundMe_flattened.sol\":1123:1177  require(price > 0, \"Price feed returned invalid data\") */\n    tag_92:\n        /* \"contracts/FundMe_flattened.sol\":1203:1213  price*1e10 */\n      tag_95\n        /* \"contracts/FundMe_flattened.sol\":1203:1208  price */\n      dup2\n        /* \"contracts/FundMe_flattened.sol\":1209:1213  1e10 */\n      0x02540be400\n        /* \"contracts/FundMe_flattened.sol\":1203:1213  price*1e10 */\n      tag_96\n      jump\t// in\n    tag_95:\n        /* \"contracts/FundMe_flattened.sol\":1188:1214  return uint256(price*1e10) */\n      swap3\n      pop\n      pop\n      pop\n        /* \"contracts/FundMe_flattened.sol\":860:1222  function getPrice() public view returns (uint256) {... */\n      swap1\n      jump\t// out\n    tag_69:\n      dup3\n      dup1\n      sload\n      dup3\n      dup3\n      sstore\n      swap1\n      0x00\n      mstore\n      keccak256(0x00, 0x20)\n      swap1\n      dup2\n      add\n      swap3\n      dup3\n      iszero\n      tag_99\n      jumpi\n      swap2\n      0x20\n      mul\n      dup3\n      add\n    tag_98:\n      dup3\n      dup2\n      gt\n      iszero\n      tag_99\n      jumpi\n      dup3\n      mload\n      dup3\n      sload\n      not(sub(shl(0xa0, 0x01), 0x01))\n      and\n      sub(shl(0xa0, 0x01), 0x01)\n      swap1\n      swap2\n      and\n      or\n      dup3\n      sstore\n      0x20\n      swap1\n      swap3\n      add\n      swap2\n      0x01\n      swap1\n      swap2\n      add\n      swap1\n      jump(tag_98)\n    tag_99:\n      pop\n      tag_100\n      swap3\n      swap2\n      pop\n      tag_101\n      jump\t// in\n    tag_100:\n      pop\n      swap1\n      jump\t// out\n    tag_101:\n    tag_102:\n      dup1\n      dup3\n      gt\n      iszero\n      tag_100\n      jumpi\n      0x00\n      dup2\n      sstore\n      0x01\n      add\n      jump(tag_102)\n        /* \"#utility.yul\":14:300   */\n    tag_22:\n        /* \"#utility.yul\":73:79   */\n      0x00\n        /* \"#utility.yul\":126:128   */\n      0x20\n        /* \"#utility.yul\":114:123   */\n      dup3\n        /* \"#utility.yul\":105:112   */\n      dup5\n        /* \"#utility.yul\":101:124   */\n      sub\n        /* \"#utility.yul\":97:129   */\n      slt\n        /* \"#utility.yul\":94:146   */\n      iszero\n      tag_108\n      jumpi\n        /* \"#utility.yul\":142:143   */\n      0x00\n        /* \"#utility.yul\":139:140   */\n      0x00\n        /* \"#utility.yul\":132:144   */\n      revert\n        /* \"#utility.yul\":94:146   */\n    tag_108:\n        /* \"#utility.yul\":168:191   */\n      dup2\n      calldataload\n      sub(shl(0xa0, 0x01), 0x01)\n        /* \"#utility.yul\":220:251   */\n      dup2\n      and\n        /* \"#utility.yul\":210:252   */\n      dup2\n      eq\n        /* \"#utility.yul\":200:270   */\n      tag_109\n      jumpi\n        /* \"#utility.yul\":266:267   */\n      0x00\n        /* \"#utility.yul\":263:264   */\n      0x00\n        /* \"#utility.yul\":256:268   */\n      revert\n        /* \"#utility.yul\":200:270   */\n    tag_109:\n        /* \"#utility.yul\":289:294   */\n      swap4\n        /* \"#utility.yul\":14:300   */\n      swap3\n      pop\n      pop\n      pop\n      jump\t// out\n        /* \"#utility.yul\":695:875   */\n    tag_39:\n        /* \"#utility.yul\":754:760   */\n      0x00\n        /* \"#utility.yul\":807:809   */\n      0x20\n        /* \"#utility.yul\":795:804   */\n      dup3\n        /* \"#utility.yul\":786:793   */\n      dup5\n        /* \"#utility.yul\":782:805   */\n      sub\n        /* \"#utility.yul\":778:810   */\n      slt\n        /* \"#utility.yul\":775:827   */\n      iszero\n      tag_113\n      jumpi\n        /* \"#utility.yul\":823:824   */\n      0x00\n        /* \"#utility.yul\":820:821   */\n      0x00\n        /* \"#utility.yul\":813:825   */\n      revert\n        /* \"#utility.yul\":775:827   */\n    tag_113:\n      pop\n        /* \"#utility.yul\":846:869   */\n      calldataload\n      swap2\n        /* \"#utility.yul\":695:875   */\n      swap1\n      pop\n      jump\t// out\n        /* \"#utility.yul\":1231:1358   */\n    tag_104:\n        /* \"#utility.yul\":1292:1302   */\n      0x4e487b71\n        /* \"#utility.yul\":1287:1290   */\n      0xe0\n        /* \"#utility.yul\":1283:1303   */\n      shl\n        /* \"#utility.yul\":1280:1281   */\n      0x00\n        /* \"#utility.yul\":1273:1304   */\n      mstore\n        /* \"#utility.yul\":1323:1327   */\n      0x11\n        /* \"#utility.yul\":1320:1321   */\n      0x04\n        /* \"#utility.yul\":1313:1328   */\n      mstore\n        /* \"#utility.yul\":1347:1351   */\n      0x24\n        /* \"#utility.yul\":1344:1345   */\n      0x00\n        /* \"#utility.yul\":1337:1352   */\n      revert\n        /* \"#utility.yul\":1363:1488   */\n    tag_50:\n        /* \"#utility.yul\":1428:1437   */\n      dup1\n      dup3\n      add\n        /* \"#utility.yul\":1449:1459   */\n      dup1\n      dup3\n      gt\n        /* \"#utility.yul\":1446:1482   */\n      iszero\n      tag_118\n      jumpi\n        /* \"#utility.yul\":1462:1480   */\n      tag_118\n      tag_104\n      jump\t// in\n    tag_118:\n        /* \"#utility.yul\":1363:1488   */\n      swap3\n      swap2\n      pop\n      pop\n      jump\t// out\n        /* \"#utility.yul\":1840:1967   */\n    tag_62:\n        /* \"#utility.yul\":1901:1911   */\n      0x4e487b71\n        /* \"#utility.yul\":1896:1899   */\n      0xe0\n        /* \"#utility.yul\":1892:1912   */\n      shl\n        /* \"#utility.yul\":1889:1890   */\n      0x00\n        /* \"#utility.yul\":1882:1913   */\n      mstore\n        /* \"#utility.yul\":1932:1936   */\n      0x32\n        /* \"#utility.yul\":1929:1930   */\n      0x04\n        /* \"#utility.yul\":1922:1937   */\n      mstore\n        /* \"#utility.yul\":1956:1960   */\n      0x24\n        /* \"#utility.yul\":1953:1954   */\n      0x00\n        /* \"#utility.yul\":1946:1961   */\n      revert\n        /* \"#utility.yul\":2657:2825   */\n    tag_84:\n        /* \"#utility.yul\":2730:2739   */\n      dup1\n      dup3\n      mul\n        /* \"#utility.yul\":2761:2770   */\n      dup2\n      iszero\n        /* \"#utility.yul\":2778:2793   */\n      dup3\n      dup3\n      div\n        /* \"#utility.yul\":2772:2794   */\n      dup5\n      eq\n        /* \"#utility.yul\":2758:2795   */\n      or\n        /* \"#utility.yul\":2748:2819   */\n      tag_118\n      jumpi\n        /* \"#utility.yul\":2799:2817   */\n      tag_118\n      tag_104\n      jump\t// in\n        /* \"#utility.yul\":2830:3047   */\n    tag_86:\n        /* \"#utility.yul\":2870:2871   */\n      0x00\n        /* \"#utility.yul\":2896:2897   */\n      dup3\n        /* \"#utility.yul\":2886:3018   */\n      tag_128\n      jumpi\n        /* \"#utility.yul\":2940:2950   */\n      0x4e487b71\n        /* \"#utility.yul\":2935:2938   */\n      0xe0\n        /* \"#utility.yul\":2931:2951   */\n      shl\n        /* \"#utility.yul\":2928:2929   */\n      0x00\n        /* \"#utility.yul\":2921:2952   */\n      mstore\n        /* \"#utility.yul\":2975:2979   */\n      0x12\n        /* \"#utility.yul\":2972:2973   */\n      0x04\n        /* \"#utility.yul\":2965:2980   */\n      mstore\n        /* \"#utility.yul\":3003:3007   */\n      0x24\n        /* \"#utility.yul\":3000:3001   */\n      0x00\n        /* \"#utility.yul\":2993:3008   */\n      revert\n        /* \"#utility.yul\":2886:3018   */\n    tag_128:\n      pop\n        /* \"#utility.yul\":3032:3041   */\n      div\n      swap1\n        /* \"#utility.yul\":2830:3047   */\n      jump\t// out\n        /* \"#utility.yul\":3052:3231   */\n    tag_105:\n        /* \"#utility.yul\":3130:3143   */\n      dup1\n      mload\n        /* \"#utility.yul\":3183:3205   */\n      0xffffffffffffffffffff\n        /* \"#utility.yul\":3172:3206   */\n      dup2\n      and\n        /* \"#utility.yul\":3162:3207   */\n      dup2\n      eq\n        /* \"#utility.yul\":3152:3225   */\n      tag_130\n      jumpi\n        /* \"#utility.yul\":3221:3222   */\n      0x00\n        /* \"#utility.yul\":3218:3219   */\n      0x00\n        /* \"#utility.yul\":3211:3223   */\n      revert\n        /* \"#utility.yul\":3152:3225   */\n    tag_130:\n        /* \"#utility.yul\":3052:3231   */\n      swap2\n      swap1\n      pop\n      jump\t// out\n        /* \"#utility.yul\":3236:3807   */\n    tag_91:\n        /* \"#utility.yul\":3339:3345   */\n      0x00\n        /* \"#utility.yul\":3347:3353   */\n      0x00\n        /* \"#utility.yul\":3355:3361   */\n      0x00\n        /* \"#utility.yul\":3363:3369   */\n      0x00\n        /* \"#utility.yul\":3371:3377   */\n      0x00\n        /* \"#utility.yul\":3424:3427   */\n      0xa0\n        /* \"#utility.yul\":3412:3421   */\n      dup7\n        /* \"#utility.yul\":3403:3410   */\n      dup9\n        /* \"#utility.yul\":3399:3422   */\n      sub\n        /* \"#utility.yul\":3395:3428   */\n      slt\n        /* \"#utility.yul\":3392:3445   */\n      iszero\n      tag_132\n      jumpi\n        /* \"#utility.yul\":3441:3442   */\n      0x00\n        /* \"#utility.yul\":3438:3439   */\n      0x00\n        /* \"#utility.yul\":3431:3443   */\n      revert\n        /* \"#utility.yul\":3392:3445   */\n    tag_132:\n        /* \"#utility.yul\":3464:3503   */\n      tag_133\n        /* \"#utility.yul\":3493:3502   */\n      dup7\n        /* \"#utility.yul\":3464:3503   */\n      tag_105\n      jump\t// in\n    tag_133:\n        /* \"#utility.yul\":3543:3545   */\n      0x20\n        /* \"#utility.yul\":3528:3546   */\n      dup8\n      add\n        /* \"#utility.yul\":3522:3547   */\n      mload\n        /* \"#utility.yul\":3609:3611   */\n      0x40\n        /* \"#utility.yul\":3594:3612   */\n      dup9\n      add\n        /* \"#utility.yul\":3588:3613   */\n      mload\n        /* \"#utility.yul\":3703:3705   */\n      0x60\n        /* \"#utility.yul\":3688:3706   */\n      dup10\n      add\n        /* \"#utility.yul\":3682:3707   */\n      mload\n        /* \"#utility.yul\":3454:3503   */\n      swap3\n      swap8\n      pop\n        /* \"#utility.yul\":3522:3547   */\n      swap1\n      swap6\n      pop\n        /* \"#utility.yul\":3588:3613   */\n      swap4\n      pop\n        /* \"#utility.yul\":3682:3707   */\n      swap2\n      pop\n        /* \"#utility.yul\":3752:3801   */\n      tag_134\n        /* \"#utility.yul\":3796:3799   */\n      0x80\n        /* \"#utility.yul\":3781:3800   */\n      dup8\n      add\n        /* \"#utility.yul\":3752:3801   */\n      tag_105\n      jump\t// in\n    tag_134:\n        /* \"#utility.yul\":3742:3801   */\n      swap1\n      pop\n        /* \"#utility.yul\":3236:3807   */\n      swap3\n      swap6\n      pop\n      swap3\n      swap6\n      swap1\n      swap4\n      pop\n      jump\t// out\n        /* \"#utility.yul\":4173:4410   */\n    tag_96:\n        /* \"#utility.yul\":4245:4254   */\n      dup1\n      dup3\n      mul\n        /* \"#utility.yul\":4212:4219   */\n      0x00\n        /* \"#utility.yul\":4270:4279   */\n      dup3\n      slt\n      shl(0xff, 0x01)\n        /* \"#utility.yul\":4281:4299   */\n      dup5\n      eq\n        /* \"#utility.yul\":4266:4300   */\n      and\n        /* \"#utility.yul\":4263:4323   */\n      iszero\n      tag_138\n      jumpi\n        /* \"#utility.yul\":4303:4321   */\n      tag_138\n      tag_104\n      jump\t// in\n    tag_138:\n        /* \"#utility.yul\":4376:4377   */\n      dup2\n        /* \"#utility.yul\":4367:4374   */\n      dup2\n        /* \"#utility.yul\":4362:4378   */\n      sdiv\n        /* \"#utility.yul\":4359:4360   */\n      dup4\n        /* \"#utility.yul\":4356:4379   */\n      eq\n        /* \"#utility.yul\":4352:4353   */\n      dup3\n        /* \"#utility.yul\":4345:4354   */\n      iszero\n        /* \"#utility.yul\":4342:4380   */\n      or\n        /* \"#utility.yul\":4332:4404   */\n      tag_118\n      jumpi\n        /* \"#utility.yul\":4384:4402   */\n      tag_118\n      tag_104\n      jump\t// in\n\n    auxdata: 0xa26469706673582212209c2604a76a4ee6b6e094911903a219c930bde0cb2930884b4282e0a36d740b8864736f6c634300081e0033\n}\n",
				"bytecode": {
					"linkReferences": {},
					"object": "60a0604052348015600e575f5ffd5b50336080526080516106f86100385f395f818160ed01528181610216015261025f01526106f85ff3fe608060405260043610610058575f3560e01c806316ba71971461006f5780633e47d6f3146100835780635c275a39146100675780636bb3da7a146100c1578063dba6335f146100dc578063dc0d3dff1461012757610067565b3661006757610065610146565b005b610065610146565b34801561007a575f5ffd5b5061006561020b565b34801561008e575f5ffd5b506100ae61009d36600461056c565b60016020525f908152604090205481565b6040519081526020015b60405180910390f35b3480156100cc575f5ffd5b506100ae670de0b6b3a764000081565b3480156100e7575f5ffd5b5061010f7f000000000000000000000000000000000000000000000000000000000000000081565b6040516001600160a01b0390911681526020016100b8565b348015610132575f5ffd5b5061010f610141366004610599565b6103b7565b670de0b6b3a7640000610158346103de565b10156101a45760405162461bcd60e51b8152602060048201526016602482015275088d2c8dc4ee840e6cadcc840cadcdeeaced0408aa8960531b60448201526064015b60405180910390fd5b5f8054600181810183557f290decd9548b62a8d60345a988386fc84ba6bc95484008f6362f93160ef3e56390910180546001600160a01b03191633908117909155825260205260409020546101fa9034906105c4565b335f90815260016020526040902055565b336001600160a01b037f00000000000000000000000000000000000000000000000000000000000000001614610254576040516330cd747160e01b815260040160405180910390fd5b336001600160a01b037f000000000000000000000000000000000000000000000000000000000000000016146102c15760405162461bcd60e51b81526020600482015260126024820152714d757374206265204f574e4552202121212160701b604482015260640161019b565b5f5b5f54811015610310575f5f82815481106102df576102df6105dd565b5f9182526020808320909101546001600160a01b0316825260019081905260408220919091559190910190506102c3565b50604080515f8082526020820192839052905161032d92906104f5565b506040515f90339047908381818185875af1925050503d805f811461036d576040519150601f19603f3d011682016040523d82523d5f602084013e610372565b606091505b50509050806103b45760405162461bcd60e51b815260206004820152600e60248201526d021b0b636102320a4a622a21010960951b604482015260640161019b565b50565b5f81815481106103c5575f80fd5b5f918252602090912001546001600160a01b0316905081565b5f5f6103e8610410565b90505f670de0b6b3a76400006103fe85846105f1565b6104089190610608565b949350505050565b5f5f73694aa1769357215de4fac081bf1f309adc32530690505f816001600160a01b031663feaf968c6040518163ffffffff1660e01b815260040160a060405180830381865afa158015610466573d5f5f3e3d5ffd5b505050506040513d601f19601f8201168201806040525081019061048a9190610645565b5050509150505f81136104df5760405162461bcd60e51b815260206004820181905260248201527f507269636520666565642072657475726e656420696e76616c69642064617461604482015260640161019b565b6104ee816402540be400610693565b9250505090565b828054828255905f5260205f20908101928215610548579160200282015b8281111561054857825182546001600160a01b0319166001600160a01b03909116178255602090920191600190910190610513565b50610554929150610558565b5090565b5b80821115610554575f8155600101610559565b5f6020828403121561057c575f5ffd5b81356001600160a01b0381168114610592575f5ffd5b9392505050565b5f602082840312156105a9575f5ffd5b5035919050565b634e487b7160e01b5f52601160045260245ffd5b808201808211156105d7576105d76105b0565b92915050565b634e487b7160e01b5f52603260045260245ffd5b80820281158282048414176105d7576105d76105b0565b5f8261062257634e487b7160e01b5f52601260045260245ffd5b500490565b805169ffffffffffffffffffff81168114610640575f5ffd5b919050565b5f5f5f5f5f60a08688031215610659575f5ffd5b61066286610627565b6020870151604088015160608901519297509095509350915061068760808701610627565b90509295509295909350565b8082025f8212600160ff1b841416156106ae576106ae6105b0565b81810583148215176105d7576105d76105b056fea26469706673582212209c2604a76a4ee6b6e094911903a219c930bde0cb2930884b4282e0a36d740b8864736f6c634300081e0033",
					"opcodes": "PUSH1 0xA0 PUSH1 0x40 MSTORE CALLVALUE DUP1 ISZERO PUSH1 0xE JUMPI PUSH0 PUSH0 REVERT JUMPDEST POP CALLER PUSH1 0x80 MSTORE PUSH1 0x80 MLOAD PUSH2 0x6F8 PUSH2 0x38 PUSH0 CODECOPY PUSH0 DUP2 DUP2 PUSH1 0xED ADD MSTORE DUP2 DUP2 PUSH2 0x216 ADD MSTORE PUSH2 0x25F ADD MSTORE PUSH2 0x6F8 PUSH0 RETURN INVALID PUSH1 0x80 PUSH1 0x40 MSTORE PUSH1 0x4 CALLDATASIZE LT PUSH2 0x58 JUMPI PUSH0 CALLDATALOAD PUSH1 0xE0 SHR DUP1 PUSH4 0x16BA7197 EQ PUSH2 0x6F JUMPI DUP1 PUSH4 0x3E47D6F3 EQ PUSH2 0x83 JUMPI DUP1 PUSH4 0x5C275A39 EQ PUSH2 0x67 JUMPI DUP1 PUSH4 0x6BB3DA7A EQ PUSH2 0xC1 JUMPI DUP1 PUSH4 0xDBA6335F EQ PUSH2 0xDC JUMPI DUP1 PUSH4 0xDC0D3DFF EQ PUSH2 0x127 JUMPI PUSH2 0x67 JUMP JUMPDEST CALLDATASIZE PUSH2 0x67 JUMPI PUSH2 0x65 PUSH2 0x146 JUMP JUMPDEST STOP JUMPDEST PUSH2 0x65 PUSH2 0x146 JUMP JUMPDEST CALLVALUE DUP1 ISZERO PUSH2 0x7A JUMPI PUSH0 PUSH0 REVERT JUMPDEST POP PUSH2 0x65 PUSH2 0x20B JUMP JUMPDEST CALLVALUE DUP1 ISZERO PUSH2 0x8E JUMPI PUSH0 PUSH0 REVERT JUMPDEST POP PUSH2 0xAE PUSH2 0x9D CALLDATASIZE PUSH1 0x4 PUSH2 0x56C JUMP JUMPDEST PUSH1 0x1 PUSH1 0x20 MSTORE PUSH0 SWAP1 DUP2 MSTORE PUSH1 0x40 SWAP1 KECCAK256 SLOAD DUP2 JUMP JUMPDEST PUSH1 0x40 MLOAD SWAP1 DUP2 MSTORE PUSH1 0x20 ADD JUMPDEST PUSH1 0x40 MLOAD DUP1 SWAP2 SUB SWAP1 RETURN JUMPDEST CALLVALUE DUP1 ISZERO PUSH2 0xCC JUMPI PUSH0 PUSH0 REVERT JUMPDEST POP PUSH2 0xAE PUSH8 0xDE0B6B3A7640000 DUP2 JUMP JUMPDEST CALLVALUE DUP1 ISZERO PUSH2 0xE7 JUMPI PUSH0 PUSH0 REVERT JUMPDEST POP PUSH2 0x10F PUSH32 0x0 DUP2 JUMP JUMPDEST PUSH1 0x40 MLOAD PUSH1 0x1 PUSH1 0x1 PUSH1 0xA0 SHL SUB SWAP1 SWAP2 AND DUP2 MSTORE PUSH1 0x20 ADD PUSH2 0xB8 JUMP JUMPDEST CALLVALUE DUP1 ISZERO PUSH2 0x132 JUMPI PUSH0 PUSH0 REVERT JUMPDEST POP PUSH2 0x10F PUSH2 0x141 CALLDATASIZE PUSH1 0x4 PUSH2 0x599 JUMP JUMPDEST PUSH2 0x3B7 JUMP JUMPDEST PUSH8 0xDE0B6B3A7640000 PUSH2 0x158 CALLVALUE PUSH2 0x3DE JUMP JUMPDEST LT ISZERO PUSH2 0x1A4 JUMPI PUSH1 0x40 MLOAD PUSH3 0x461BCD PUSH1 0xE5 SHL DUP2 MSTORE PUSH1 0x20 PUSH1 0x4 DUP3 ADD MSTORE PUSH1 0x16 PUSH1 0x24 DUP3 ADD MSTORE PUSH22 0x88D2C8DC4EE840E6CADCC840CADCDEEACED0408AA89 PUSH1 0x53 SHL PUSH1 0x44 DUP3 ADD MSTORE PUSH1 0x64 ADD JUMPDEST PUSH1 0x40 MLOAD DUP1 SWAP2 SUB SWAP1 REVERT JUMPDEST PUSH0 DUP1 SLOAD PUSH1 0x1 DUP2 DUP2 ADD DUP4 SSTORE PUSH32 0x290DECD9548B62A8D60345A988386FC84BA6BC95484008F6362F93160EF3E563 SWAP1 SWAP2 ADD DUP1 SLOAD PUSH1 0x1 PUSH1 0x1 PUSH1 0xA0 SHL SUB NOT AND CALLER SWAP1 DUP2 OR SWAP1 SWAP2 SSTORE DUP3 MSTORE PUSH1 0x20 MSTORE PUSH1 0x40 SWAP1 KECCAK256 SLOAD PUSH2 0x1FA SWAP1 CALLVALUE SWAP1 PUSH2 0x5C4 JUMP JUMPDEST CALLER PUSH0 SWAP1 DUP2 MSTORE PUSH1 0x1 PUSH1 0x20 MSTORE PUSH1 0x40 SWAP1 KECCAK256 SSTORE JUMP JUMPDEST CALLER PUSH1 0x1 PUSH1 0x1 PUSH1 0xA0 SHL SUB PUSH32 0x0 AND EQ PUSH2 0x254 JUMPI PUSH1 0x40 MLOAD PUSH4 0x30CD7471 PUSH1 0xE0 SHL DUP2 MSTORE PUSH1 0x4 ADD PUSH1 0x40 MLOAD DUP1 SWAP2 SUB SWAP1 REVERT JUMPDEST CALLER PUSH1 0x1 PUSH1 0x1 PUSH1 0xA0 SHL SUB PUSH32 0x0 AND EQ PUSH2 0x2C1 JUMPI PUSH1 0x40 MLOAD PUSH3 0x461BCD PUSH1 0xE5 SHL DUP2 MSTORE PUSH1 0x20 PUSH1 0x4 DUP3 ADD MSTORE PUSH1 0x12 PUSH1 0x24 DUP3 ADD MSTORE PUSH18 0x4D757374206265204F574E45522021212121 PUSH1 0x70 SHL PUSH1 0x44 DUP3 ADD MSTORE PUSH1 0x64 ADD PUSH2 0x19B JUMP JUMPDEST PUSH0 JUMPDEST PUSH0 SLOAD DUP2 LT ISZERO PUSH2 0x310 JUMPI PUSH0 PUSH0 DUP3 DUP2 SLOAD DUP2 LT PUSH2 0x2DF JUMPI PUSH2 0x2DF PUSH2 0x5DD JUMP JUMPDEST PUSH0 SWAP2 DUP3 MSTORE PUSH1 0x20 DUP1 DUP4 KECCAK256 SWAP1 SWAP2 ADD SLOAD PUSH1 0x1 PUSH1 0x1 PUSH1 0xA0 SHL SUB AND DUP3 MSTORE PUSH1 0x1 SWAP1 DUP2 SWAP1 MSTORE PUSH1 0x40 DUP3 KECCAK256 SWAP2 SWAP1 SWAP2 SSTORE SWAP2 SWAP1 SWAP2 ADD SWAP1 POP PUSH2 0x2C3 JUMP JUMPDEST POP PUSH1 0x40 DUP1 MLOAD PUSH0 DUP1 DUP3 MSTORE PUSH1 0x20 DUP3 ADD SWAP3 DUP4 SWAP1 MSTORE SWAP1 MLOAD PUSH2 0x32D SWAP3 SWAP1 PUSH2 0x4F5 JUMP JUMPDEST POP PUSH1 0x40 MLOAD PUSH0 SWAP1 CALLER SWAP1 SELFBALANCE SWAP1 DUP4 DUP2 DUP2 DUP2 DUP6 DUP8 GAS CALL SWAP3 POP POP POP RETURNDATASIZE DUP1 PUSH0 DUP2 EQ PUSH2 0x36D JUMPI PUSH1 0x40 MLOAD SWAP2 POP PUSH1 0x1F NOT PUSH1 0x3F RETURNDATASIZE ADD AND DUP3 ADD PUSH1 0x40 MSTORE RETURNDATASIZE DUP3 MSTORE RETURNDATASIZE PUSH0 PUSH1 0x20 DUP5 ADD RETURNDATACOPY PUSH2 0x372 JUMP JUMPDEST PUSH1 0x60 SWAP2 POP JUMPDEST POP POP SWAP1 POP DUP1 PUSH2 0x3B4 JUMPI PUSH1 0x40 MLOAD PUSH3 0x461BCD PUSH1 0xE5 SHL DUP2 MSTORE PUSH1 0x20 PUSH1 0x4 DUP3 ADD MSTORE PUSH1 0xE PUSH1 0x24 DUP3 ADD MSTORE PUSH14 0x21B0B636102320A4A622A210109 PUSH1 0x95 SHL PUSH1 0x44 DUP3 ADD MSTORE PUSH1 0x64 ADD PUSH2 0x19B JUMP JUMPDEST POP JUMP JUMPDEST PUSH0 DUP2 DUP2 SLOAD DUP2 LT PUSH2 0x3C5 JUMPI PUSH0 DUP1 REVERT JUMPDEST PUSH0 SWAP2 DUP3 MSTORE PUSH1 0x20 SWAP1 SWAP2 KECCAK256 ADD SLOAD PUSH1 0x1 PUSH1 0x1 PUSH1 0xA0 SHL SUB AND SWAP1 POP DUP2 JUMP JUMPDEST PUSH0 PUSH0 PUSH2 0x3E8 PUSH2 0x410 JUMP JUMPDEST SWAP1 POP PUSH0 PUSH8 0xDE0B6B3A7640000 PUSH2 0x3FE DUP6 DUP5 PUSH2 0x5F1 JUMP JUMPDEST PUSH2 0x408 SWAP2 SWAP1 PUSH2 0x608 JUMP JUMPDEST SWAP5 SWAP4 POP POP POP POP JUMP JUMPDEST PUSH0 PUSH0 PUSH20 0x694AA1769357215DE4FAC081BF1F309ADC325306 SWAP1 POP PUSH0 DUP2 PUSH1 0x1 PUSH1 0x1 PUSH1 0xA0 SHL SUB AND PUSH4 0xFEAF968C PUSH1 0x40 MLOAD DUP2 PUSH4 0xFFFFFFFF AND PUSH1 0xE0 SHL DUP2 MSTORE PUSH1 0x4 ADD PUSH1 0xA0 PUSH1 0x40 MLOAD DUP1 DUP4 SUB DUP2 DUP7 GAS STATICCALL ISZERO DUP1 ISZERO PUSH2 0x466 JUMPI RETURNDATASIZE PUSH0 PUSH0 RETURNDATACOPY RETURNDATASIZE PUSH0 REVERT JUMPDEST POP POP POP POP PUSH1 0x40 MLOAD RETURNDATASIZE PUSH1 0x1F NOT PUSH1 0x1F DUP3 ADD AND DUP3 ADD DUP1 PUSH1 0x40 MSTORE POP DUP2 ADD SWAP1 PUSH2 0x48A SWAP2 SWAP1 PUSH2 0x645 JUMP JUMPDEST POP POP POP SWAP2 POP POP PUSH0 DUP2 SGT PUSH2 0x4DF JUMPI PUSH1 0x40 MLOAD PUSH3 0x461BCD PUSH1 0xE5 SHL DUP2 MSTORE PUSH1 0x20 PUSH1 0x4 DUP3 ADD DUP2 SWAP1 MSTORE PUSH1 0x24 DUP3 ADD MSTORE PUSH32 0x507269636520666565642072657475726E656420696E76616C69642064617461 PUSH1 0x44 DUP3 ADD MSTORE PUSH1 0x64 ADD PUSH2 0x19B JUMP JUMPDEST PUSH2 0x4EE DUP2 PUSH5 0x2540BE400 PUSH2 0x693 JUMP JUMPDEST SWAP3 POP POP POP SWAP1 JUMP JUMPDEST DUP3 DUP1 SLOAD DUP3 DUP3 SSTORE SWAP1 PUSH0 MSTORE PUSH1 0x20 PUSH0 KECCAK256 SWAP1 DUP2 ADD SWAP3 DUP3 ISZERO PUSH2 0x548 JUMPI SWAP2 PUSH1 0x20 MUL DUP3 ADD JUMPDEST DUP3 DUP2 GT ISZERO PUSH2 0x548 JUMPI DUP3 MLOAD DUP3 SLOAD PUSH1 0x1 PUSH1 0x1 PUSH1 0xA0 SHL SUB NOT AND PUSH1 0x1 PUSH1 0x1 PUSH1 0xA0 SHL SUB SWAP1 SWAP2 AND OR DUP3 SSTORE PUSH1 0x20 SWAP1 SWAP3 ADD SWAP2 PUSH1 0x1 SWAP1 SWAP2 ADD SWAP1 PUSH2 0x513 JUMP JUMPDEST POP PUSH2 0x554 SWAP3 SWAP2 POP PUSH2 0x558 JUMP JUMPDEST POP SWAP1 JUMP JUMPDEST JUMPDEST DUP1 DUP3 GT ISZERO PUSH2 0x554 JUMPI PUSH0 DUP2 SSTORE PUSH1 0x1 ADD PUSH2 0x559 JUMP JUMPDEST PUSH0 PUSH1 0x20 DUP3 DUP5 SUB SLT ISZERO PUSH2 0x57C JUMPI PUSH0 PUSH0 REVERT JUMPDEST DUP2 CALLDATALOAD PUSH1 0x1 PUSH1 0x1 PUSH1 0xA0 SHL SUB DUP2 AND DUP2 EQ PUSH2 0x592 JUMPI PUSH0 PUSH0 REVERT JUMPDEST SWAP4 SWAP3 POP POP POP JUMP JUMPDEST PUSH0 PUSH1 0x20 DUP3 DUP5 SUB SLT ISZERO PUSH2 0x5A9 JUMPI PUSH0 PUSH0 REVERT JUMPDEST POP CALLDATALOAD SWAP2 SWAP1 POP JUMP JUMPDEST PUSH4 0x4E487B71 PUSH1 0xE0 SHL PUSH0 MSTORE PUSH1 0x11 PUSH1 0x4 MSTORE PUSH1 0x24 PUSH0 REVERT JUMPDEST DUP1 DUP3 ADD DUP1 DUP3 GT ISZERO PUSH2 0x5D7 JUMPI PUSH2 0x5D7 PUSH2 0x5B0 JUMP JUMPDEST SWAP3 SWAP2 POP POP JUMP JUMPDEST PUSH4 0x4E487B71 PUSH1 0xE0 SHL PUSH0 MSTORE PUSH1 0x32 PUSH1 0x4 MSTORE PUSH1 0x24 PUSH0 REVERT JUMPDEST DUP1 DUP3 MUL DUP2 ISZERO DUP3 DUP3 DIV DUP5 EQ OR PUSH2 0x5D7 JUMPI PUSH2 0x5D7 PUSH2 0x5B0 JUMP JUMPDEST PUSH0 DUP3 PUSH2 0x622 JUMPI PUSH4 0x4E487B71 PUSH1 0xE0 SHL PUSH0 MSTORE PUSH1 0x12 PUSH1 0x4 MSTORE PUSH1 0x24 PUSH0 REVERT JUMPDEST POP DIV SWAP1 JUMP JUMPDEST DUP1 MLOAD PUSH10 0xFFFFFFFFFFFFFFFFFFFF DUP2 AND DUP2 EQ PUSH2 0x640 JUMPI PUSH0 PUSH0 REVERT JUMPDEST SWAP2 SWAP1 POP JUMP JUMPDEST PUSH0 PUSH0 PUSH0 PUSH0 PUSH0 PUSH1 0xA0 DUP7 DUP9 SUB SLT ISZERO PUSH2 0x659 JUMPI PUSH0 PUSH0 REVERT JUMPDEST PUSH2 0x662 DUP7 PUSH2 0x627 JUMP JUMPDEST PUSH1 0x20 DUP8 ADD MLOAD PUSH1 0x40 DUP9 ADD MLOAD PUSH1 0x60 DUP10 ADD MLOAD SWAP3 SWAP8 POP SWAP1 SWAP6 POP SWAP4 POP SWAP2 POP PUSH2 0x687 PUSH1 0x80 DUP8 ADD PUSH2 0x627 JUMP JUMPDEST SWAP1 POP SWAP3 SWAP6 POP SWAP3 SWAP6 SWAP1 SWAP4 POP JUMP JUMPDEST DUP1 DUP3 MUL PUSH0 DUP3 SLT PUSH1 0x1 PUSH1 0xFF SHL DUP5 EQ AND ISZERO PUSH2 0x6AE JUMPI PUSH2 0x6AE PUSH2 0x5B0 JUMP JUMPDEST DUP2 DUP2 SDIV DUP4 EQ DUP3 ISZERO OR PUSH2 0x5D7 JUMPI PUSH2 0x5D7 PUSH2 0x5B0 JUMP INVALID LOG2 PUSH5 0x6970667358 0x22 SLT KECCAK256 SWAP13 0x26 DIV 0xA7 PUSH11 0x4EE6B6E094911903A219C9 ADDRESS 0xBD RJUMP 0xCB29 ADDRESS DUP9 0x4B TIMESTAMP DUP3 RJUMP 0xA36D PUSH21 0xB8864736F6C634300081E00330000000000000000 "
				},
				"gasEstimates": {
					"creation": {
						"codeDepositCost": "356800",
						"executionCost": "infinite",
						"totalCost": "infinite"
					},
					"external": {
						"": "infinite",
						"FUND()": "infinite",
						"MINI_USD()": "227",
						"WITHDRAW()": "infinite",
						"addressToAmountFunded(address)": "2470",
						"funders(uint256)": "4698",
						"i_owner()": "infinite"
					}
				},
				"methodIdentifiers": {
					"FUND()": "5c275a39",
					"MINI_USD()": "6bb3da7a",
					"WITHDRAW()": "16ba7197",
					"addressToAmountFunded(address)": "3e47d6f3",
					"funders(uint256)": "dc0d3dff",
					"i_owner()": "dba6335f"
				}
			},
			"storageLayout": {
				"storage": [
					{
						"astId": 128,
						"contract": "contracts/FundMe_flattened.sol:FundMe",
						"label": "funders",
						"offset": 0,
						"slot": "0",
						"type": "t_array(t_address)dyn_storage"
					},
					{
						"astId": 132,
						"contract": "contracts/FundMe_flattened.sol:FundMe",
						"label": "addressToAmountFunded",
						"offset": 0,
						"slot": "1",
						"type": "t_mapping(t_address,t_uint256)"
					}
				],
				"types": {
					"t_address": {
						"encoding": "inplace",
						"label": "address",
						"numberOfBytes": "20"
					},
					"t_array(t_address)dyn_storage": {
						"base": "t_address",
						"encoding": "dynamic_array",
						"label": "address[]",
						"numberOfBytes": "32"
					},
					"t_mapping(t_address,t_uint256)": {
						"encoding": "mapping",
						"key": "t_address",
						"label": "mapping(address => uint256)",
						"numberOfBytes": "32",
						"value": "t_uint256"
					},
					"t_uint256": {
						"encoding": "inplace",
						"label": "uint256",
						"numberOfBytes": "32"
					}
				}
			},
			"userdoc": {
				"kind": "user",
				"methods": {},
				"version": 1
			}
		}
	}
}