{
	"contracts/FundMe_flattened.sol": {
		"PriceConverter": {
			"abi": [
				{
					"inputs": [],
					"name": "getPrice",
					"outputs": [
						{
							"internalType": "uint256",
							"name": "",
							"type": "uint256"
						}
					],
					"stateMutability": "view",
					"type": "function"
				}
			],
			"devdoc": {
				"kind": "dev",
				"methods": {},
				"version": 1
			},
			"evm": {
				"assembly": "    /* \"contracts/FundMe_flattened.sol\":828:1623  library PriceConverter{... */\n  dataSize(sub_0)\n  dataOffset(sub_0)\n  0x0b\n  dup3\n  dup3\n  dup3\n  codecopy\n  dup1\n  mload\n  0x00\n  byte\n  0x73\n  eq\n  tag_1\n  jumpi\n  mstore(0x00, shl(0xe0, 0x4e487b71))\n  mstore(0x04, 0x00)\n  revert(0x00, 0x24)\ntag_1:\n  mstore(0x00, address)\n  0x73\n  dup2\n  mstore8\n  dup3\n  dup2\n  return\nstop\n\nsub_0: assembly {\n        /* \"contracts/FundMe_flattened.sol\":828:1623  library PriceConverter{... */\n      eq(address, deployTimeAddress())\n      mstore(0x40, 0x80)\n      jumpi(tag_1, lt(calldatasize, 0x04))\n      shr(0xe0, calldataload(0x00))\n      dup1\n      0x98d5fdca\n      eq\n      tag_2\n      jumpi\n    tag_1:\n      revert(0x00, 0x00)\n        /* \"contracts/FundMe_flattened.sol\":860:1222  function getPrice() public view returns (uint256) {... */\n    tag_2:\n      tag_3\n      tag_4\n      jump\t// in\n    tag_3:\n      mload(0x40)\n        /* \"#utility.yul\":168:193   */\n      swap1\n      dup2\n      mstore\n        /* \"#utility.yul\":156:158   */\n      0x20\n        /* \"#utility.yul\":141:159   */\n      add\n        /* \"contracts/FundMe_flattened.sol\":860:1222  function getPrice() public view returns (uint256) {... */\n      mload(0x40)\n      dup1\n      swap2\n      sub\n      swap1\n      return\n    tag_4:\n        /* \"contracts/FundMe_flattened.sol\":901:908  uint256 */\n      0x00\n        /* \"contracts/FundMe_flattened.sol\":921:952  AggregatorV3Interface priceFeed */\n      0x00\n        /* \"contracts/FundMe_flattened.sol\":977:1019  0x694AA1769357215DE4FAC081bf1f309aDC325306 */\n      0x694aa1769357215de4fac081bf1f309adc325306\n        /* \"contracts/FundMe_flattened.sol\":921:1020  AggregatorV3Interface priceFeed = AggregatorV3Interface(0x694AA1769357215DE4FAC081bf1f309aDC325306) */\n      swap1\n      pop\n        /* \"contracts/FundMe_flattened.sol\":1034:1046  int256 price */\n      0x00\n        /* \"contracts/FundMe_flattened.sol\":1056:1065  priceFeed */\n      dup2\n      sub(shl(0xa0, 0x01), 0x01)\n        /* \"contracts/FundMe_flattened.sol\":1056:1081  priceFeed.latestRoundData */\n      and\n      0xfeaf968c\n        /* \"contracts/FundMe_flattened.sol\":1056:1083  priceFeed.latestRoundData() */\n      mload(0x40)\n      dup2\n      0xffffffff\n      and\n      0xe0\n      shl\n      dup2\n      mstore\n      0x04\n      add\n      0xa0\n      mload(0x40)\n      dup1\n      dup4\n      sub\n      dup2\n      dup7\n      gas\n      staticcall\n      iszero\n      dup1\n      iszero\n      tag_9\n      jumpi\n      returndatacopy(0x00, 0x00, returndatasize)\n      revert(0x00, returndatasize)\n    tag_9:\n      pop\n      pop\n      pop\n      pop\n      mload(0x40)\n      returndatasize\n      not(0x1f)\n      0x1f\n      dup3\n      add\n      and\n      dup3\n      add\n      dup1\n      0x40\n      mstore\n      pop\n      dup2\n      add\n      swap1\n      tag_10\n      swap2\n      swap1\n      tag_11\n      jump\t// in\n    tag_10:\n        /* \"contracts/FundMe_flattened.sol\":1031:1083  (, int256 price, , , ) = priceFeed.latestRoundData() */\n      pop\n      pop\n      pop\n      swap2\n      pop\n      pop\n        /* \"contracts/FundMe_flattened.sol\":1139:1140  0 */\n      0x00\n        /* \"contracts/FundMe_flattened.sol\":1131:1136  price */\n      dup2\n        /* \"contracts/FundMe_flattened.sol\":1131:1140  price > 0 */\n      sgt\n        /* \"contracts/FundMe_flattened.sol\":1123:1177  require(price > 0, \"Price feed returned invalid data\") */\n      tag_12\n      jumpi\n      mload(0x40)\n      shl(0xe5, 0x461bcd)\n      dup2\n      mstore\n        /* \"#utility.yul\":1166:1168   */\n      0x20\n        /* \"contracts/FundMe_flattened.sol\":1123:1177  require(price > 0, \"Price feed returned invalid data\") */\n      0x04\n      dup3\n      add\n        /* \"#utility.yul\":1148:1169   */\n      dup2\n      swap1\n      mstore\n        /* \"#utility.yul\":1185:1203   */\n      0x24\n      dup3\n      add\n        /* \"#utility.yul\":1178:1208   */\n      mstore\n        /* \"#utility.yul\":1244:1278   */\n      0x507269636520666565642072657475726e656420696e76616c69642064617461\n        /* \"#utility.yul\":1224:1242   */\n      0x44\n      dup3\n      add\n        /* \"#utility.yul\":1217:1279   */\n      mstore\n        /* \"#utility.yul\":1296:1314   */\n      0x64\n      add\n        /* \"contracts/FundMe_flattened.sol\":1123:1177  require(price > 0, \"Price feed returned invalid data\") */\n      mload(0x40)\n      dup1\n      swap2\n      sub\n      swap1\n      revert\n    tag_12:\n        /* \"contracts/FundMe_flattened.sol\":1203:1213  price*1e10 */\n      tag_15\n        /* \"contracts/FundMe_flattened.sol\":1203:1208  price */\n      dup2\n        /* \"contracts/FundMe_flattened.sol\":1209:1213  1e10 */\n      0x02540be400\n        /* \"contracts/FundMe_flattened.sol\":1203:1213  price*1e10 */\n      tag_16\n      jump\t// in\n    tag_15:\n        /* \"contracts/FundMe_flattened.sol\":1188:1214  return uint256(price*1e10) */\n      swap3\n      pop\n      pop\n      pop\n        /* \"contracts/FundMe_flattened.sol\":860:1222  function getPrice() public view returns (uint256) {... */\n      swap1\n      jump\t// out\n        /* \"#utility.yul\":204:383   */\n    tag_17:\n        /* \"#utility.yul\":282:295   */\n      dup1\n      mload\n        /* \"#utility.yul\":335:357   */\n      0xffffffffffffffffffff\n        /* \"#utility.yul\":324:358   */\n      dup2\n      and\n        /* \"#utility.yul\":314:359   */\n      dup2\n      eq\n        /* \"#utility.yul\":304:377   */\n      tag_22\n      jumpi\n        /* \"#utility.yul\":373:374   */\n      0x00\n        /* \"#utility.yul\":370:371   */\n      0x00\n        /* \"#utility.yul\":363:375   */\n      revert\n        /* \"#utility.yul\":304:377   */\n    tag_22:\n        /* \"#utility.yul\":204:383   */\n      swap2\n      swap1\n      pop\n      jump\t// out\n        /* \"#utility.yul\":388:959   */\n    tag_11:\n        /* \"#utility.yul\":491:497   */\n      0x00\n        /* \"#utility.yul\":499:505   */\n      0x00\n        /* \"#utility.yul\":507:513   */\n      0x00\n        /* \"#utility.yul\":515:521   */\n      0x00\n        /* \"#utility.yul\":523:529   */\n      0x00\n        /* \"#utility.yul\":576:579   */\n      0xa0\n        /* \"#utility.yul\":564:573   */\n      dup7\n        /* \"#utility.yul\":555:562   */\n      dup9\n        /* \"#utility.yul\":551:574   */\n      sub\n        /* \"#utility.yul\":547:580   */\n      slt\n        /* \"#utility.yul\":544:597   */\n      iszero\n      tag_24\n      jumpi\n        /* \"#utility.yul\":593:594   */\n      0x00\n        /* \"#utility.yul\":590:591   */\n      0x00\n        /* \"#utility.yul\":583:595   */\n      revert\n        /* \"#utility.yul\":544:597   */\n    tag_24:\n        /* \"#utility.yul\":616:655   */\n      tag_25\n        /* \"#utility.yul\":645:654   */\n      dup7\n        /* \"#utility.yul\":616:655   */\n      tag_17\n      jump\t// in\n    tag_25:\n        /* \"#utility.yul\":695:697   */\n      0x20\n        /* \"#utility.yul\":680:698   */\n      dup8\n      add\n        /* \"#utility.yul\":674:699   */\n      mload\n        /* \"#utility.yul\":761:763   */\n      0x40\n        /* \"#utility.yul\":746:764   */\n      dup9\n      add\n        /* \"#utility.yul\":740:765   */\n      mload\n        /* \"#utility.yul\":855:857   */\n      0x60\n        /* \"#utility.yul\":840:858   */\n      dup10\n      add\n        /* \"#utility.yul\":834:859   */\n      mload\n        /* \"#utility.yul\":606:655   */\n      swap3\n      swap8\n      pop\n        /* \"#utility.yul\":674:699   */\n      swap1\n      swap6\n      pop\n        /* \"#utility.yul\":740:765   */\n      swap4\n      pop\n        /* \"#utility.yul\":834:859   */\n      swap2\n      pop\n        /* \"#utility.yul\":904:953   */\n      tag_26\n        /* \"#utility.yul\":948:951   */\n      0x80\n        /* \"#utility.yul\":933:952   */\n      dup8\n      add\n        /* \"#utility.yul\":904:953   */\n      tag_17\n      jump\t// in\n    tag_26:\n        /* \"#utility.yul\":894:953   */\n      swap1\n      pop\n        /* \"#utility.yul\":388:959   */\n      swap3\n      swap6\n      pop\n      swap3\n      swap6\n      swap1\n      swap4\n      pop\n      jump\t// out\n        /* \"#utility.yul\":1325:1452   */\n    tag_18:\n        /* \"#utility.yul\":1386:1396   */\n      0x4e487b71\n        /* \"#utility.yul\":1381:1384   */\n      0xe0\n        /* \"#utility.yul\":1377:1397   */\n      shl\n        /* \"#utility.yul\":1374:1375   */\n      0x00\n        /* \"#utility.yul\":1367:1398   */\n      mstore\n        /* \"#utility.yul\":1417:1421   */\n      0x11\n        /* \"#utility.yul\":1414:1415   */\n      0x04\n        /* \"#utility.yul\":1407:1422   */\n      mstore\n        /* \"#utility.yul\":1441:1445   */\n      0x24\n        /* \"#utility.yul\":1438:1439   */\n      0x00\n        /* \"#utility.yul\":1431:1446   */\n      revert\n        /* \"#utility.yul\":1457:1694   */\n    tag_16:\n        /* \"#utility.yul\":1529:1538   */\n      dup1\n      dup3\n      mul\n        /* \"#utility.yul\":1496:1503   */\n      0x00\n        /* \"#utility.yul\":1554:1563   */\n      dup3\n      slt\n      shl(0xff, 0x01)\n        /* \"#utility.yul\":1565:1583   */\n      dup5\n      eq\n        /* \"#utility.yul\":1550:1584   */\n      and\n        /* \"#utility.yul\":1547:1607   */\n      iszero\n      tag_31\n      jumpi\n        /* \"#utility.yul\":1587:1605   */\n      tag_31\n      tag_18\n      jump\t// in\n    tag_31:\n        /* \"#utility.yul\":1660:1661   */\n      dup2\n        /* \"#utility.yul\":1651:1658   */\n      dup2\n        /* \"#utility.yul\":1646:1662   */\n      sdiv\n        /* \"#utility.yul\":1643:1644   */\n      dup4\n        /* \"#utility.yul\":1640:1663   */\n      eq\n        /* \"#utility.yul\":1636:1637   */\n      dup3\n        /* \"#utility.yul\":1629:1638   */\n      iszero\n        /* \"#utility.yul\":1626:1664   */\n      or\n        /* \"#utility.yul\":1616:1688   */\n      tag_33\n      jumpi\n        /* \"#utility.yul\":1668:1686   */\n      tag_33\n      tag_18\n      jump\t// in\n    tag_33:\n        /* \"#utility.yul\":1457:1694   */\n      swap3\n      swap2\n      pop\n      pop\n      jump\t// out\n\n    auxdata: 0xa264697066735822122042d7026eb2a0b1a79215747f266f1d76e09e608acd609c2c2bcfb0ef7cf2d5d964736f6c634300081e0033\n}\n",
				"bytecode": {
					"linkReferences": {},
					"object": "610226610034600b8282823980515f1a607314602857634e487b7160e01b5f525f60045260245ffd5b305f52607381538281f3fe7300000000000000000000000000000000000000003014608060405260043610610034575f3560e01c806398d5fdca14610038575b5f5ffd5b610040610052565b60405190815260200160405180910390f35b5f5f73694aa1769357215de4fac081bf1f309adc32530690505f816001600160a01b031663feaf968c6040518163ffffffff1660e01b815260040160a060405180830381865afa1580156100a8573d5f5f3e3d5ffd5b505050506040513d601f19601f820116820180604052508101906100cc9190610159565b5050509150505f81136101255760405162461bcd60e51b815260206004820181905260248201527f507269636520666565642072657475726e656420696e76616c69642064617461604482015260640160405180910390fd5b610134816402540be4006101bb565b9250505090565b805169ffffffffffffffffffff81168114610154575f5ffd5b919050565b5f5f5f5f5f60a0868803121561016d575f5ffd5b6101768661013b565b6020870151604088015160608901519297509095509350915061019b6080870161013b565b90509295509295909350565b634e487b7160e01b5f52601160045260245ffd5b8082025f8212600160ff1b841416156101d6576101d66101a7565b81810583148215176101ea576101ea6101a7565b9291505056fea264697066735822122042d7026eb2a0b1a79215747f266f1d76e09e608acd609c2c2bcfb0ef7cf2d5d964736f6c634300081e0033",
					"opcodes": "PUSH2 0x226 PUSH2 0x34 PUSH1 0xB DUP3 DUP3 DUP3 CODECOPY DUP1 MLOAD PUSH0 BYTE PUSH1 0x73 EQ PUSH1 0x28 JUMPI PUSH4 0x4E487B71 PUSH1 0xE0 SHL PUSH0 MSTORE PUSH0 PUSH1 0x4 MSTORE PUSH1 0x24 PUSH0 REVERT JUMPDEST ADDRESS PUSH0 MSTORE PUSH1 0x73 DUP2 MSTORE8 DUP3 DUP2 RETURN INVALID PUSH20 0x0 ADDRESS EQ PUSH1 0x80 PUSH1 0x40 MSTORE PUSH1 0x4 CALLDATASIZE LT PUSH2 0x34 JUMPI PUSH0 CALLDATALOAD PUSH1 0xE0 SHR DUP1 PUSH4 0x98D5FDCA EQ PUSH2 0x38 JUMPI JUMPDEST PUSH0 PUSH0 REVERT JUMPDEST PUSH2 0x40 PUSH2 0x52 JUMP JUMPDEST PUSH1 0x40 MLOAD SWAP1 DUP2 MSTORE PUSH1 0x20 ADD PUSH1 0x40 MLOAD DUP1 SWAP2 SUB SWAP1 RETURN JUMPDEST PUSH0 PUSH0 PUSH20 0x694AA1769357215DE4FAC081BF1F309ADC325306 SWAP1 POP PUSH0 DUP2 PUSH1 0x1 PUSH1 0x1 PUSH1 0xA0 SHL SUB AND PUSH4 0xFEAF968C PUSH1 0x40 MLOAD DUP2 PUSH4 0xFFFFFFFF AND PUSH1 0xE0 SHL DUP2 MSTORE PUSH1 0x4 ADD PUSH1 0xA0 PUSH1 0x40 MLOAD DUP1 DUP4 SUB DUP2 DUP7 GAS STATICCALL ISZERO DUP1 ISZERO PUSH2 0xA8 JUMPI RETURNDATASIZE PUSH0 PUSH0 RETURNDATACOPY RETURNDATASIZE PUSH0 REVERT JUMPDEST POP POP POP POP PUSH1 0x40 MLOAD RETURNDATASIZE PUSH1 0x1F NOT PUSH1 0x1F DUP3 ADD AND DUP3 ADD DUP1 PUSH1 0x40 MSTORE POP DUP2 ADD SWAP1 PUSH2 0xCC SWAP2 SWAP1 PUSH2 0x159 JUMP JUMPDEST POP POP POP SWAP2 POP POP PUSH0 DUP2 SGT PUSH2 0x125 JUMPI PUSH1 0x40 MLOAD PUSH3 0x461BCD PUSH1 0xE5 SHL DUP2 MSTORE PUSH1 0x20 PUSH1 0x4 DUP3 ADD DUP2 SWAP1 MSTORE PUSH1 0x24 DUP3 ADD MSTORE PUSH32 0x507269636520666565642072657475726E656420696E76616C69642064617461 PUSH1 0x44 DUP3 ADD MSTORE PUSH1 0x64 ADD PUSH1 0x40 MLOAD DUP1 SWAP2 SUB SWAP1 REVERT JUMPDEST PUSH2 0x134 DUP2 PUSH5 0x2540BE400 PUSH2 0x1BB JUMP JUMPDEST SWAP3 POP POP POP SWAP1 JUMP JUMPDEST DUP1 MLOAD PUSH10 0xFFFFFFFFFFFFFFFFFFFF DUP2 AND DUP2 EQ PUSH2 0x154 JUMPI PUSH0 PUSH0 REVERT JUMPDEST SWAP2 SWAP1 POP JUMP JUMPDEST PUSH0 PUSH0 PUSH0 PUSH0 PUSH0 PUSH1 0xA0 DUP7 DUP9 SUB SLT ISZERO PUSH2 0x16D JUMPI PUSH0 PUSH0 REVERT JUMPDEST PUSH2 0x176 DUP7 PUSH2 0x13B JUMP JUMPDEST PUSH1 0x20 DUP8 ADD MLOAD PUSH1 0x40 DUP9 ADD MLOAD PUSH1 0x60 DUP10 ADD MLOAD SWAP3 SWAP8 POP SWAP1 SWAP6 POP SWAP4 POP SWAP2 POP PUSH2 0x19B PUSH1 0x80 DUP8 ADD PUSH2 0x13B JUMP JUMPDEST SWAP1 POP SWAP3 SWAP6 POP SWAP3 SWAP6 SWAP1 SWAP4 POP JUMP JUMPDEST PUSH4 0x4E487B71 PUSH1 0xE0 SHL PUSH0 MSTORE PUSH1 0x11 PUSH1 0x4 MSTORE PUSH1 0x24 PUSH0 REVERT JUMPDEST DUP1 DUP3 MUL PUSH0 DUP3 SLT PUSH1 0x1 PUSH1 0xFF SHL DUP5 EQ AND ISZERO PUSH2 0x1D6 JUMPI PUSH2 0x1D6 PUSH2 0x1A7 JUMP JUMPDEST DUP2 DUP2 SDIV DUP4 EQ DUP3 ISZERO OR PUSH2 0x1EA JUMPI PUSH2 0x1EA PUSH2 0x1A7 JUMP JUMPDEST SWAP3 SWAP2 POP POP JUMP INVALID LOG2 PUSH5 0x6970667358 0x22 SLT KECCAK256 TIMESTAMP 0xD7 MUL PUSH15 0xB2A0B1A79215747F266F1D76E09E60 DUP11 0xCD PUSH1 0x9C 0x2C 0x2B 0xCF 0xB0 0xEF PUSH29 0xF2D5D964736F6C634300081E0033000000000000000000000000000000 "
				},
				"gasEstimates": {
					"creation": {
						"codeDepositCost": "110000",
						"executionCost": "186",
						"totalCost": "110186"
					},
					"external": {
						"getPrice()": "infinite"
					},
					"internal": {
						"GetConversionRate(uint256)": "infinite",
						"GetVersion()": "infinite"
					}
				},
				"methodIdentifiers": {
					"getPrice()": "98d5fdca"
				}
			},
			"storageLayout": {
				"storage": [],
				"types": null
			},
			"userdoc": {
				"kind": "user",
				"methods": {},
				"version": 1
			}
		}
	}
}